:020000020000FC
:100000000C944B000C94AE000C9434000C9435000E
:100010000C9436000C9437000C9438000C94390082
:100020000C943A000C941B020C943B000C943C0082
:100030000C94E3010C943D000C943E000C943F00A2
:100040000C9440000C9441000C9442000C9443002A
:100050000C9444000C9445000C9446000C9447000A
:100060000C9448000C94490015C014C013C012C071
:1000700011C010C00FC00EC00DC00CC00BC00AC014
:1000800009C008C007C006C005C004C003C002C044
:1000900001C000C0FFCF08E00EBF0FEF0DBF0FE2A1
:1000A00004B904E005B93C983D98449A459A0AE49D
:1000B0000AB90EE00BB905B7016005BF0C7F05BF9B
:1000C000E89802E000936900E89A00270093C000D6
:1000D00008E10093C10006E00093C20000270093EE
:1000E000C50007E60093C4006627AA27BB27CC27D4
:1000F00001EC0093B80000E00093B90087E20E9491
:100100005B030E94510200E50CBD00270DBD442792
:1001100055270E9422034AE054E00E94160340E063
:1001200050E00E94160341E05FEF0E9416034DE08D
:100130005FEF0E94160345E05FEF0E94160349E05F
:1001400050E00E94160341E155270E94220342E13C
:1001500050E00E94160378948895FECF41E1552720
:100160000E942203702F70FF0E94880171FF0E947D
:10017000920172FF0E949C0173FF0E94A60176FF0C
:100180000E94680174FD0C94C800B1600C94CE000C
:10019000B0FF0C94CE00BE7F0E94B50175FD0C949B
:1001A000D400B2600C94DA00B1FF0C94DA00BD7F89
:1001B0000E94D60118950F93002760FF0C94E4006D
:1001C00061FD0C94E400039562FF0C94EB0063FD69
:1001D0000C94EB00039564FF0C94F20065FD0C9405
:1001E000F200039566FF0C94F90067FD0C94F9008A
:1001F00003950E944F0129F401301CF40E94510123
:1002000018C00E94350151F4C03019F0013031F0AE
:100210001CF00E94370102C00E9451010E9422017D
:1002200041F4013034F019F00E94370102C00E94FD
:1002300024010F910895A0E06A7A0E9451020E9461
:10024000B0010895A03008950F93A1E0C3E00E948B
:10025000F6010E9451020E94B00102E404BD05E0D3
:1002600005BD03E207BD0F910895A1300895A2E0F6
:100270000E94EE010E9451020E94B0010F930CE017
:1002800007BD00E00093B00007E00093B10001E07B
:100290000093700000270093B2000F910895A230E0
:1002A0000895A3E00E9451020E94EE010E94B00155
:1002B0000F93002704BD05BD0093B0000093B1006B
:1002C000009370000093B2000F910895A330089539
:1002D000A4E00E94EE010E9451020E94B0010F931F
:1002E0000CE007BD00E00093B00007E00093B10010
:1002F00001E00093700000270093B20002E404BD07
:1003000005E005BD03E207BD0F910895A4300895EF
:1003100060FD089561600E9451020E94B0010E9438
:10032000DB00089562FD089564600E9451020E94FE
:10033000B0010E94DB00089564FD089560610E9491
:1003400051020E94B0010E94DB00089566FD0895ED
:1003500060640E9451020E94B0010E94DB00089577
:1003600042E1562F0E94160308950E94350171F054
:100370000E944F0159F00E94860141F00E946601DF
:1003800049F00E94220151F00C94D3010E945101C6
:100390000C94D3010E941B010C94D30166270E9488
:1003A00051020C94D3010E94B001089560FD626077
:1003B00062FD686064FD606266FD60680E945102D3
:1003C0000E94DB000895C03019F40E94DB001895EC
:1003D000CA950E9451020E94F60118950F930027BA
:1003E00000936F00009381000F9108950F931F9366
:1003F0002F9320916F00002700936F0000938100DE
:1004000000E0009380001DE309E010938B0000934F
:100410008A00002700938500009384000DE000937C
:10042000810000E000938200246020936F002F91F0
:100430001F910F9108950F93002705BD07B50A95E9
:100440000C300CF001C002E307BD05E005BD0F91C3
:1004500018950C0149646C652E00416C657274003E
:1004600045564143554154452100416C6C20436C35
:1004700065617200454D455247454E435900303A3B
:100480000000313A0000323A0000333A0000437C69
:100490000000547C0000497C000033003200310031
:1004A00030000E94400390E00E9434030E94350116
:1004B00079F00E944F01A1F00E948601B9F00E94DC
:1004C0006601D1F0E4E5F4E00E944B030C94800255
:1004D000EAE5F4E00E944B030E94EB020C948002D8
:1004E000E0E6F4E00E944B030C948002E4E7F4E0C1
:1004F0000E944B030C948002EAE6F4E00E944B0356
:1005000090E40E943403EEE7F4E00E944B0361FDA7
:100510000C94950260FD0C9491020E94DC020C94F4
:1005200099020E94E1020C9499020E94E6020C9446
:100530009902E2E8F4E00E944B0363FD0C94AB02E5
:1005400062FD0C94A7020E94DC020C94AF020E9490
:10055000E1020C94AF020E94E6020C94AF02E6E8BE
:10056000F4E00E944B0365FD0C94C10264FD0C9401
:10057000BD020E94DC020C94C5020E94E1020C94B0
:10058000C5020E94E6020C94C502EAE8F4E00E946B
:100590004B0367FD0C94D70266FD0C94D3020E94B6
:1005A000DC020C94DB020E94E1020C94DB020E944C
:1005B000E6020C94DB020895EEE8F4E00E944B039F
:1005C0000895E2E9F4E00E944B030895E6E9F4E0BF
:1005D0000E944B030895C33049F49FE00E94340306
:1005E000EAE9F4E00E944B030C948002C23049F423
:1005F0009FE00E943403ECE9F4E00E944B030C946A
:100600008002C13049F49FE00E943403EEE9F4E037
:100610000E944B030C948002C03008959FE00E941A
:100620003403E0EAF4E00E944B0308952A9800E4C2
:100630000E942E03042F0E942E03052F0E942E03DA
:100640002A9A08952A9801E40E942E03042F0E94FA
:100650002E03052F0E942E032A9A08950EBD0DB574
:1006600007FFFDCF0EB508950F931F930E948103DE
:10067000092F006818E00E949E031F910F9194C0FB
:100680000F931F930E94810301E018E00E949E03D4
:100690001F910F9189C00F931F930E94810319E04E
:1006A0000591003029F00E949E0311F40C94500330
:1006B0001F910F9179C02F930E94810322270E94DE
:1006C000AC030E94D4030E94810320E30E94AC0388
:1006D0000E94D4030E94810320E30E94AC030E9485
:1006E000D4030E94810320E30E94AC030E94D40340
:1006F0000E94810328E20E94AC030E94D4032F9140
:1007000008950F9304EA0093BC000E94DD0300915A
:10071000B900087F083081F4082F000F0093BB0058
:1007200004E80093BC000E94DD030091B900087F3B
:10073000083111F40F9108950F9108952F93202FF0
:10074000207F212B0E94AC03202F2295207F212B7C
:100750000E94AC032F9108953F9324602093BB0027
:1007600034E83093BC000E94DD033091B900387F3B
:10077000383261F42B7F2093BB0034E83093BC0007
:100780000E94DD033091B900387F38323F910895DF
:100790000F930E948103903039F005910E949E03CF
:1007A00019F49A95D1F70F910F9304E90093BC00C7
:1007B00000E00A95F1F70F910895FF92F090BC00C8
:1007C000F7FEFCCFFF9008950A0D00000F930591EE
:1007D000002319F00E94EF03FACF0F9108951F93A1
:1007E0001091C0001072E1F30093C6001F910895AC
:1007F0001F930F9302950E9402040F910E9402041E
:100800001F9108950F930F700A300CF0095F005D7F
:100810000E94EF030F910895E8ECF7E00E94E603D1
:02082000089539
:00000001FF
